:020000040000FA
:10000000B8020010690100007101000073010000D6
:100010007501000077010000790100000000000078
:100020000000000000000000000000007B01000054
:100030007D010000000000007F0100008101000040
:1000400083010000830100008301000083010000A0
:100050008301000083010000830100008301000090
:100060008301000083010000830100008301000080
:100070008301000083010000830100008301000070
:100080008301000083010000830100008301000060
:100090008301000083010000830100008301000050
:1000A0008301000083010000830100008301000040
:1000B0008301000083010000830100008301000030
:1000C00083010000830100008301000000F002F8BA
:1000D00000F03AF80AA090E8000C82448344AAF1A8
:1000E0000107DA4501D100F02FF8AFF2090EBAE8A6
:1000F0000F0013F0010F18BFFB1A43F0010318475C
:100100000807000028070000103A24BF78C878C10B
:10011000FAD8520724BF30C830C144BF04680C600D
:10012000704700000023002400250026103A28BF55
:1001300078C1FBD8520728BF30C148BF0B60704759
:100140001FB51FBD10B510BD00F0A6F81146FFF792
:10015000F7FF00F083F900F0C4F803B4FFF7F2FFF3
:1001600003BC00F04BFB00000948804709480047EA
:10017000FEE7FEE7FEE7FEE7FEE7FEE7FEE7FEE757
:10018000FEE7FEE704480549034A054B70470000B7
:100190008D060000CD000000B8000010B80200106D
:1001A000B800001053EA020C00F069802DE9F04B12
:1001B0004FF00006002B1FBFB3FA83F503FA05F4D6
:1001C00024FA05F65E4012BF1643B2FA82F502FA2F
:1001D00005F4C5F120051EBF22FA05FC44EA0C0413
:1001E000203556EA044C4FEA144418BF641C4FF003
:1001F00000084FF00009904271EB030C39D300293D
:1002000019BFB1FA81F701FA07F6B0FA80F700FAE0
:1002100007F6C7F120071EBF20FA07FC46EA0C06C6
:100220002037B6FBF4FCA7EB0507103F07F01F0BC8
:10023000CBF120060CFA0BFB2CFA06F644BFB346B2
:100240000026202FA4BF5E464FF0000B5BEA060C91
:1002500008BF4FF0010B19EB0B09ABFB027C48EB1D
:100260000608C01B06FB02CC0BFB03CC71EB0C0198
:10027000C1E70B46024641464846BDE8F08B13B540
:100280004FF000004FF00001AFF30080BDE81C40CC
:100290007047704770477047754600F029F8AE46C2
:1002A00005006946534620F00700854618B020B582
:1002B000FFF768FFBDE820404FF000064FF0000751
:1002C0004FF000084FF0000B21F00701AC46ACE8FE
:1002D000C009ACE8C009ACE8C009ACE8C0098D466B
:1002E00070470446AFF300802046FFF736FF00005A
:1002F000004870475800001070470000FFFFFFFFE4
:100300004FF47F606D4908616D486E49096850F887
:1003100021006A4948614FF4FF0008616A48694951
:10032000096850F821006949085C00016349486187
:1003300000206749086004E065480068401C644983
:10034000086063480068B0F5FA7FF5D34FF47F602A
:100350005A49C86170475F480068FF282BD10020C8
:100360005C49086058484068401E57494860084644
:10037000406800281FDA0020486008468068401E58
:10038000886008468068002815DA002088600846E2
:10039000C068401EC8600846C06800280BDA00200C
:1003A000C86008460069401E0861084600690028C8
:1003B00001DA00200861704746480068FF282BD109
:1003C00000204449086040484068401C3E4948605D
:1003D0000846406810281FD1002048600846806801
:1003E000401C886008468068102815D1002088606D
:1003F0000846C068401CC8600846C06810280BD179
:100400000020C86008460069401C08610846006971
:10041000102801D100200861704700202C49086095
:1004200004E02B480068401C2949086028480068FF
:10043000B0F5FA7FF5D32848006828490968884252
:1004400006D1FF202349086000202349086004E00A
:1004500021480068401C20490860704700F016F9E8
:1004600000F040F800201E490860486008614FF421
:100470007F60124908600846006840F4F020086078
:100480004FF48050086418E0FFF7C7FF0D4800687C
:10049000401C0C4908600948406D10F4805F08D189
:1004A00008460068052806D101200860FFF784FF90
:1004B00001E0FFF750FFFFF723FFE5E700C0092049
:1004C0000000001034000010440000101400001060
:1004D00024000010300000102C0000102800001034
:1004E00000C002402DE9F047B1480068C0F3016048
:1004F00003287CD1AF48006810F0030006D0012823
:1005000033D002285FD003282ED100E000BFA848D6
:100510000068C0F3074000F101044FF00201A64853
:10052000D0F88800C0F30E0000F10100A1FB00012B
:10053000A24B4FF0000CA0FB037901FB039100FBE1
:100540000C11224663463846FFF72CFE05469C48B0
:100550000068C0B200F1010422464FF000032846B3
:10056000FFF720FE974908605DE091480068C0F3FE
:10057000074000F101044FF002018F48D0F88800D5
:10058000C0F30E0000F10100A1FB00108E4A4FF0F5
:10059000000CA1FB027900FB029001FB0C0122463A
:1005A00063463846FFF7FEFD054685480068C0B241
:1005B00000F1010422464FF000032846FFF7F2FD48
:1005C000804908602FE07A480068C0F3074000F1D6
:1005D00001044FF002017848D0F88800C0F30E0003
:1005E00000F10100A1FB00124FF4004000E01BE00D
:1005F0004FF00003A1FB007902FB009001FB030117
:1006000022463846FFF7CEFD05466D480068C0B269
:1006100000F1010422464FF000032846FFF7C2FD17
:100620006849086000BF2FE06248006810F00300CE
:1006300006D0012810D0022819D0032823D100E0C9
:1006400000BF5F480068C0B200F101005B49B1FB28
:10065000F0F05C49086016E059480068C0B200F14B
:1006600001005949B1FBF0F0564908600BE05448CD
:100670000068C0B200F101004FF40041B1FBF0F09E
:100680005049086000BF00BFBDE8F08720204F49F7
:1006900008604948D0F8A00110F0200F05D000BF35
:1006A0004A48006810F0400FFAD00320444908601F
:1006B0004FF000004049C1F8A801454908604FF0DB
:1006C00001003C4908604348434908604FF0AA00D4
:1006D000424908604FF0550008604FF00100404962
:1006E00008604FF0AA003D4908604FF055003249BC
:1006F000C1F88C0000BF2E48006810F0806FFAD05F
:100700000320374908604FF0AA002B49C1F88C003C
:100710004FF055003149086000BF2548006800F0DF
:100720004070B0F1407FF8D123202E4908604FF08F
:10073000AA002149C1F8AC004FF055002A490860D1
:100740004FF00100294908604FF0AA0026490860CF
:100750004FF055001849C1F8AC0000BF24480068AC
:1007600010F4806FFAD00320204908604FF0AA00EF
:100770001149C1F8AC004FF055001B49086000BF9B
:100780001B48006800F44070B0F5407FF8D119486C
:10079000194908604FF000000749C1F8C801084630
:1007A000006820F4704040F480400860704700000A
:1007B00088C00F400CC10F4000C00F4000093D0031
:1007C00004C10F4040000010001BB700A0C10F4043
:1007D000ACC10F406300050084C00F408CC00F40C7
:1007E00080C00F40A4C00F40ACC00F40A0C00F405D
:1007F000A8C00F40DE872804C4C00F40014918205C
:10080000ABBEFEE726000200280800000000001032
:1008100044000000080100006C08000044000010C3
:10082000740200002401000000000000000000002D
:100830000080000000000100008001003F065B4FC7
:10084000666D7D077F6F0000000000000000000063
:10085000E8030000000000000000000000000000AD
:0C086000000000000000000000E1F505B1
:04000005000001698D
:00000001FF
